:020000040800F2
:1000000000002F2051420008294100082B41000820
:100010002D4100082F41000831410008A14200088D
:100020000000000000000000000000003341000854
:100030003541000800000000374100083941000840
:10004000A1420008A1420008A1420008A142000804
:10005000A1420008A1420008A1420008A1420008F4
:10006000A1420008A1420008A1420008A1420008E4
:100070003D410008A1420008A14200084341000898
:100080001D3D0008A1420008A1420008A14200084D
:10009000A1420008A1420008A1420008A1420008B4
:1000A000A1420008A1420008A1420008A1420008A4
:1000B000A1420008A1420008A1420008A142000894
:1000C000A1420008A1420008A1420008A142000884
:1000D000A1420008A1420008A1420008A142000874
:1000E000A1420008A1420008A1420008A142000864
:1000F000A1420008A1420008A1420008A142000854
:10010000A142000849410008A1420008A14200089C
:10011000A1420008A1420008A1420008A142000833
:10012000A1420008A1420008A1420008A142000823
:10013000A1420008A1420008A1420008A142000813
:10014000A1420008A1420008A1420008A142000803
:10015000A1420008A1420008A1420008A1420008F3
:10016000A1420008A1420008A1420008A1420008E3
:10017000A1420008A1420008A1420008A1420008D3
:10018000A1420008A1420008A1420008A1420008C3
:10019000A1420008A1420008A1420008A1420008B3
:1001A000A1420008A1420008A1420008A1420008A3
:1001B000A1420008A1420008A1420008A142000893
:1001C000A1420008A1420008A1420008A142000883
:1001D000A1420008A1420008A1420008A142000873
:1001E000A1420008A1420008A1420008A142000863
:1001F000A1420008A1420008A1420008A142000853
:10020000A1420008A1420008A1420008A142000842
:10021000A1420008A1420008A1420008A142000832
:10022000A1420008A1420008A1420008A142000822
:10023000A1420008A1420008A1420008A142000812
:10024000A1420008A1420008A1420008A142000802
:10025000A1420008A1420008A1420008A1420008F2
:10026000A1420008A1420008A1420008A1420008E2
:04027000A14200089F
:1002780010B5054C237833B9044B13B10448AFF3D8
:1002880000800123237010BD200100200000000021
:100298006829010808B5034B1BB103490348AFF3AC
:1002A800008008BD00000000240100206829010822
:1002B80010F8012B11F8013B012A28BF9A42F7D008
:1002C800D01A7047034613F8012B002AFBD1181ADD
:1002D8000138704781F0004102E000BF83F000431D
:1002E80030B54FEA41044FEA430594EA050F08BFC9
:1002F80090EA020F1FBF54EA000C55EA020C7FEA8D
:10030800645C7FEA655C00F0E2804FEA5454D4EB09
:100318005555B8BF6D420CDD2C4480EA020281EAD3
:10032800030382EA000083EA010180EA020281EA0B
:100338000303362D88BF30BD11F0004F4FEA01315D
:100348004FF4801C4CEA113102D0404261EB41016C
:1003580013F0004F4FEA03334CEA133302D05242F2
:1003680063EB430394EA050F00F0A780A4F10104AE
:10037800D5F1200E0DDB02FA0EFC22FA05F28018E8
:1003880041F1000103FA0EF2801843FA05F35941CE
:100398000EE0A5F120050EF1200E012A03FA0EFC4D
:1003A80028BF4CF0020C43FA05F3C01851EBE37177
:1003B80001F0004507D54FF0000EDCF1000C7EEB94
:1003C80000006EEB0101B1F5801F1BD3B1F5001FD2
:1003D8000CD349085FEA30004FEA3C0C04F10104F1
:1003E8004FEA445212F5800F80F09A80BCF1004F1A
:1003F80008BF5FEA500C50F1000041EB045141EA9C
:10040800050130BD5FEA4C0C404141EB0101013C64
:1004180028BFB1F5801FE9D291F0000F04BF014653
:100428000020B1FA81F308BF2033A3F10B03B3F125
:1004380020020CDA0C3208DD02F1140CC2F10C02B5
:1004480001FA0CF021FA02F10CE002F11402D8BF13
:10045800C2F1200C01FA02F120FA0CFCDCBF41EADF
:100468000C019040E41AA2BF01EB0451294330BDAE
:100478006FEA04041F3C1CDA0C340EDC04F114048B
:10048800C4F1200220FA04F001FA02F340EA030062
:1004980021FA04F345EA030130BDC4F10C04C4F1A8
:1004A800200220FA02F001FA04F340EA0300294688
:1004B80030BD21FA04F0294630BD94F0000F83F4D2
:1004C800801306BF81F480110134013D4EE77FEAB5
:1004D800645C18BF7FEA655C29D094EA050F08BF01
:1004E80090EA020F05D054EA000C04BF19461046E2
:1004F80030BD91EA030F1EBF0021002030BD5FEA26
:10050800545C05D14000494128BF41F0004130BD4D
:1005180014F580043CBF01F5801130BD01F00045A1
:1005280045F0FE4141F470014FF0000030BD7FEA14
:10053800645C1ABF194610467FEA655C1CBF0B460F
:10054800024650EA013406BF52EA033591EA030F26
:1005580041F4002130BD00BF90F0000F04BF00211E
:10056800704730B54FF4806404F132044FF0000551
:100578004FF0000150E700BF90F0000F04BF0021CA
:10058800704730B54FF4806404F1320410F0004530
:1005980048BF40424FF000013EE700BF42004FEA2B
:1005A800E2014FEA31014FEA02701FBF12F07F43A8
:1005B80093F07F4F81F06051704732F07F4208BF5F
:1005C800704793F07F4F04BF41F40021704730B566
:1005D8004FF4607401F0004521F000411CE700BFB2
:1005E80050EA010208BF704730B54FF000050AE035
:1005F80050EA010208BF704730B511F0004502D536
:10060800404261EB41014FF4806404F132045FEA37
:10061800915C3FF4D8AE4FF003025FEADC0C18BFE0
:1006280003325FEADC0C18BF033202EBDC02C2F1D2
:10063800200300FA03FC20FA02F001FA03FE40EA64
:100648000E0021FA02F11444BDE600BF70B54FF068
:10065800FF0C4CF4E06C1CEA11541DBF1CEA135546
:1006680094EA0C0F95EA0C0F00F0DEF82C4481EAAE
:10067800030621EA4C5123EA4C5350EA013518BFCE
:1006880052EA033541F4801143F4801338D0A0FBBB
:1006980002CE4FF00005E1FB02E506F00042E0FB68
:1006A80003E54FF00006E1FB03569CF0000F18BF6E
:1006B8004EF0010EA4F1FF04B6F5007F64F5407416
:1006C80004D25FEA4E0E6D4146EB060642EAC621A9
:1006D80041EA55514FEAC52040EA5E504FEACE2E16
:1006E800B4F1FD0C88BFBCF5E06F1ED8BEF1004F19
:1006F80008BF5FEA500E50F1000041EB045170BD95
:1007080006F0004646EA010140EA020081EA0301D8
:10071800B4EB5C04C2BFD4EB0C0541EA045170BDD4
:1007280041F480114FF0000E013C00F3AB8014F14E
:10073800360FDEBF002001F0004170BDC4F1000497
:10074800203C35DA0C341BDC04F11404C4F1200518
:1007580000FA05F320FA04F001FA05F240EA020073
:1007680001F0004221F0004110EBD37021FA04F6A9
:1007780042EB06015EEA430E08BF20EAD37070BD63
:10078800C4F10C04C4F1200500FA04F320FA05F0C2
:1007980001FA04F240EA020001F0004110EBD370C4
:1007A80041F100015EEA430E08BF20EAD37070BD34
:1007B800C4F1200500FA05F24EEA020E20FA04F30D
:1007C80001FA05F243EA020321FA04F001F00041BC
:1007D80021FA04F220EA020000EBD3705EEA430E2D
:1007E80008BF20EAD37070BD94F0000F0FD101F05C
:1007F8000046400041EB010111F4801F08BF013C95
:10080800F7D041EA060195F0000F18BF704703F0D2
:100818000046520043EB030313F4801F08BF013D59
:10082800F7D043EA0603704794EA0C0F0CEA135515
:1008380018BF95EA0C0F0CD050EA410618BF52EACF
:100848004306D1D181EA030101F000414FF00000D5
:1008580070BD50EA410606BF1046194652EA4306E3
:1008680019D094EA0C0F02D150EA013613D195EA57
:100878000C0F05D152EA03361CBF104619460AD19F
:1008880081EA030101F0004141F0FE4141F47001A9
:100898004FF0000070BD41F0FE4141F4780170BD99
:1008A80070B54FF0FF0C4CF4E06C1CEA11541DBFFE
:1008B8001CEA135594EA0C0F95EA0C0F00F0A7F800
:1008C800A4EB050481EA030E52EA03354FEA01312D
:1008D80000F088804FEA03334FF0805545EA131340
:1008E80043EA12634FEA022245EA111545EA106508
:1008F8004FEA00260EF000419D4208BF964244F19F
:10090800FD0404F5407402D25B084FEA3202B61ABD
:1009180065EB03055B084FEA32024FF480104FF491
:10092800002CB6EB020E75EB030E22BFB61A754605
:1009380040EA0C005B084FEA3202B6EB020E75EB98
:10094800030E22BFB61A754640EA5C005B084FEA00
:100958003202B6EB020E75EB030E22BFB61A7546CD
:1009680040EA9C005B084FEA3202B6EB020E75EBD8
:10097800030E22BFB61A754640EADC0055EA060E99
:1009880018D04FEA051545EA16754FEA06164FEADC
:10099800C30343EA52734FEAC2025FEA1C1CC0D188
:1009A80011F4801F0BD141EA00014FF000004FF015
:1009B800004CB6E711F4801F04BF01430020B4F1D6
:1009C800FD0C88BFBCF5E06F3FF6AFAEB5EB030C8E
:1009D80004BFB6EB020C5FEA500C50F1000041EB8B
:1009E800045170BD0EF0004E4EEA113114EB5C0458
:1009F800C2BFD4EB0C0541EA045170BD41F480112B
:100A08004FF0000E013C90E645EA060E8DE60CEA32
:100A1800135594EA0C0F08BF95EA0C0F3FF43BAF4F
:100A280094EA0C0F0AD150EA01347FF434AF95EA06
:100A38000C0F7FF425AF104619462CE795EA0C0FEA
:100A480006D152EA03353FF4FDAE1046194622E7B7
:100A580050EA410618BF52EA43067FF4C5AE50EA91
:100A680041047FF40DAF52EA43057FF4EBAE12E781
:100A78004FF0FF3C06E000BF4FF0010C02E000BF62
:100A88004FF0010C4DF804CD4FEA410C7FEA6C5C45
:100A98004FEA430C18BF7FEA6C5C1BD001B050EAE8
:100AA800410C0CBF52EA430C91EA030F02BF90EAD3
:100AB800020F0020704710F1000F91EA030F58BF92
:100AC800994208BF90422CBFD8176FEAE37040F0F4
:100AD800010070474FEA410C7FEA6C5C02D150EA92
:100AE800013C07D14FEA430C7FEA6C5CD6D152EA4D
:100AF800033CD3D05DF8040B704700BF8446104612
:100B080062468C461946634600E000BF01B5FFF710
:100B1800B7FF002848BF10F1000F01BD4DF808EDE0
:100B2800FFF7F4FF0CBF012000205DF808FB00BFB1
:100B38004DF808EDFFF7EAFF34BF012000205DF80B
:100B480008FB00BF4DF808EDFFF7E0FF94BF012058
:100B580000205DF808FB00BF4DF808EDFFF7CEFF59
:100B680094BF012000205DF808FB00BF4DF808ED98
:100B7800FFF7C4FF34BF012000205DF808FB00BF69
:100B88004FEA410C7FEA6C5C02D150EA013C0AD181
:100B98004FEA430C7FEA6C5C02D152EA033C02D173
:100BA8004FF0000070474FF0010070474FEA4102D4
:100BB80012F5001215D211D56FF47873B3EB6252A7
:100BC80012D94FEAC12343F0004343EA505311F0CE
:100BD800004F23FA02F018BF404270474FF0000060
:100BE800704750EA013005D111F0004008BF6FF09E
:100BF800004070474FF00000704700BF4FEA4102C5
:100C0800B2F1E04324BFB3F5001CDCF1FE5C0DD962
:100C180001F0004C4FEAC0024CEA5070B2F1004FAC
:100C280040EB830008BF20F00100704711F0804FAF
:100C380021D113F13872BCBF01F00040704741F474
:100C480080114FEA5252C2F11802C2F1200C10FA78
:100C58000CF320FA02F018BF40F001004FEAC1235C
:100C68004FEAD32303FA0CFC40EA0C0023FA02F300
:100C78004FEA4303CCE77FEA625307D150EA0133D6
:100C88001EBF4FF0FE4040F44000704701F00040A6
:100C980040F0FE4040F40000704700BF7BB972B9D5
:100CA8000029BEBF00204FF0004106E008BF002821
:100CB8001CBF6FF000414FF0FF3000F0E3B9ADF119
:100CC800080C6DE904CE002909DB002B1ADB00F0C3
:100CD80035F8DDF804E0DDE9022304B0704740424E
:100CE80061EB4101002B1BDB00F028F8DDF804E084
:100CF800DDE9022304B0404261EB4101524263EB5B
:100D080043037047524263EB430300F017F8DDF8E2
:100D180004E0DDE9022304B0404261EB4101704781
:100D2800524263EB430300F009F8DDF804E0DDE923
:100D3800022304B0524263EB430370472DE9F04F9E
:100D4800099D884604468E46002B4AD18A4217469A
:100D58005FD9B2FA82F64EB1C6F1200301FA06FE57
:100D6800B740B44020FA03F343EA0E0E4FEA17489F
:100D78001FFA87FC230CBEFBF8F108FB11EE01FB00
:100D88000CF243EA0E439A4207D9FB1801F1FF30EF
:100D980002D29A4200F2548101469B1AA2B2B3FBD6
:100DA800F8F008FB103300FB0CFC42EA03429445C0
:100DB8000BD9BA1800F1FF332CBF01240024944545
:100DC80002D9002C00F03F81184640EA0140A2EB0E
:100DD8000C0200211DB1F2400023C5E90023BDE843
:100DE800F08F8B4205D90DB1C5E9000100210846F5
:100DF800F5E7B3FA83F100294ED14345C0F01281DB
:100E0800824240F20F810846002DE8D0C5E9004E25
:100E1800E5E7002A00F0AC80B2FA82F6002E40F036
:100E2800BB808B1A4FEA124EBCB20121020C80B271
:100E3800B3FBFEFC0EFB1C3342EA034304FB0CF23B
:100E48009A420ED9FB180CF1FF382CBF4FF001095C
:100E58004FF000099A4203D9B9F1000F00F0EC8075
:100E6800C4469B1AB3FBFEF80EFB183304FB08F4C8
:100E780040EA034294420BD9BA1808F1FF332CBF59
:100E880001200020944202D9002800F0D180984621
:100E9800121B48EA0C409DE7C1F120068B4008FA76
:100EA80001F400FA01F922FA06F728FA06F88A404E
:100EB8001F4320FA06F3380C23431FFA87FC1C0C47
:100EC800B8FBF0FE00FB1E8844EA08440EFB0CF851
:100ED800A0450ED93C190EF1FF3A2CBF4FF0010B7B
:100EE8004FF0000BA04503D9BBF1000F00F0B8800C
:100EF800D646A4EB08041FFA83F8B4FBF0F300FB12
:100F0800134403FB0CFC48EA0444A4450ED93C19DD
:100F180003F1FF302CBF4FF001084FF00008A44543
:100F280003D9B8F1000F00F09F80034643EA0E4052
:100F3800A4EB0C04A0FB02EC64457346E04602D324
:100F480007D1F14505D2BEEB02036CEB070C013863
:100F5800E0465DB1B9EB030264EB080404FA06F657
:100F680022FA01F3CC401E43C5E90064002136E7AC
:100F7800B1FBF2FC010C144680B2964641EA0841E6
:100F88002026904640EA01431046B1FBF2F1A3EB5C
:100F9800080341EA0C414BE7B740C6F1200301FAC8
:100FA80006F221FA03F84FEA174E20FA03F3BCB20F
:100FB800B0401343020C190C80B2B8FBFEF90EFBCB
:100FC800198841EA084109FB04F8884551D979187C
:100FD80009F1FF3C2CBF4FF0010A4FF0000A884589
:100FE80002D9BAF1000F31D0A1EB0801B1FBFEF92B
:100FF80009FB04F80EFB19119BB243EA0143434570
:1010080035D2FB1809F1FF312CBF4FF0010A4FF020
:10101800000A4345BBD2BAF1000FB8D1A9F10201C9
:101028003B44B4E7841A68EB030201209646EBE6DA
:101038003A44A8F102082BE7ACF1020C3B4410E754
:1010480002393B44A9E63A440238BEE6A7EB080851
:10105800A9F1020C4144B1FBFEF909FB04F8C9E708
:10106800AEF1020E3C4444E7023B3C445EE749468D
:101078008DE7A1EB0801CC46B1FBFEF909FB04F8AA
:10108800B8E700BF704700BF40F201130B8005238B
:101098004FF448728B704FF4F0730020C1E90123BC
:1010A80070472DE9F34190F82430044623B90368CA
:1010B8009847012384F82430002548F2470648F26F
:1010C800FF0801233146276920890DF10702B84737
:1010D800A8B99DF807300136B6B21D444645EDB2B1
:1010E800EFD16D4201233146276920890DF10702AE
:1010F800EDB2B84718B99DF80730AB4201D04FF0B0
:10110800FF3002B0BDE8F08190F82430012B04BF15
:10111800002380F82430002070470020704710B466
:1011280004690089A4465DF8044B604710B4C4689C
:101138000089A4465DF8044B6047082337B58DF84D
:10114800023000238DF803308DF804308DF8053017
:101158008DF806308B7A00F118040D4603F00F0362
:10116800204609798DF8073000F014FA18B14FF0CD
:10117800FF3003B030BD2046297800F0E6F900289A
:10118800F5D1012348F2720120460DF1050200F065
:101198004AF90028EBD1012348F2730120460DF1EA
:1011A800060200F040F90028E1D1012348F2740159
:1011B80020460DF1070200F036F90028D7D10123A7
:1011C80048F2750120460DF1030200F02CF90028C1
:1011D800CDD1012348F27601204601AA00F023F977
:1011E8000028C4D1012348F27701204605F10802FE
:1011F80000F019F90028BAD1012348F278012046F5
:1012080005F1090200F00FF90028B0D1012348F2D6
:10121800460120460DF1020200F005F90028A6D18A
:10122800012348F2400120460DF1020200F0FBF8CC
:10123800003818BF012040429BE7183000F0DCB9A5
:1012480007B518300DF1070100F054F938B99DF8C9
:101258000730052B98BF184603B05DF804FB4FF024
:10126800FF30F9E77FB5002306460D460293ADF837
:101278000C308DF80730FFF7E3FF041E07DB30461C
:10128800FFF7DEFF0528286004D94FF0FF34204619
:1012980004B070BD0028FAD01836062348F2501161
:1012A800304602AA00F0B8F80028EED19DF80930BF
:1012B8009DF808201B0203F4706313436B609DF8CC
:1012C8000B309DF80A201B0203F470631343AB60D4
:1012D80048F24E11012330460DF1070200F0A3F841
:1012E8000446D4E770B506468AB028220C466846FC
:1012F80000210EF050FE3046FFF7A2FF051E07DB67
:101308003046FFF79DFF0528206004D94FF0FF35D0
:1013180028460AB070BD28236A4648F2501106F1E3
:10132800180000F079F80028F0D16A4623462068B2
:1013380004EB8000834202F1080209D10022143430
:10134800A342E5D043F8042F5A619A62DA63F7E7BB
:1013580012F8071C12F8086C090201F47061314395
:1013680043F8041F12F8051C12F8066C090201F470
:1013780070613143596112F8041C996212F8011C1A
:10138800C909D963D6E7183000F0AEB837B50123DC
:101398000446C56948F24D01006A0DF10702A847E5
:1013A80090B994F825109DF8073001F0030123F057
:1013B8000303194304F1180000F011F9003818BFAD
:1013C8000120404203B030BD4FF0FF30FAE718303B
:1013D80000F0ADB80020704790B14A680B684260D1
:1013E8000A8903600281CA68C2600A6902614A699F
:1013F80000624261044AC261044A826103B118472B
:101408004FF0FF30704700BF271100083511000862
:1014180080F825100020704710B4D0E90140A44698
:101428005DF8044B6047F7B5064600208DF80500C7
:10143800012034688DF80700B0680D46A047041EE7
:1014480018BF012405F5FF41393189B2B729C4F124
:10145800000427D848F24705012329467768B06871
:101468000DF10602B84700BB9DF805309DF806202F
:1014780013448DF8053048F2FF030135ADB29D42A3
:10148800EAD17CB99DF8053074685B428DF8053067
:1014980029460123B0680DF10602A047044638B179
:1014A8004FF0FF34204603B0F0BD4FF0FF34E2E7C1
:1014B8009DF805209DF806309A42F3D0012329466D
:1014C8003468B0680DF10502A0470028E8D13468F7
:1014D80001234FF40141B0680DF10702A047041E33
:1014E80018BF01246442DDE70A46012348F24B1184
:1014F800FFF792BF38B505460C460123224648F24D
:101508004E112846FFF788FF60B92378802B0AD14F
:1015180020700123224648F24E112846FFF783FF28
:101528000028EAD038BD03F00F032370FAE7002340
:1015380007B548F24E118DF807300DF10702012367
:10154800FFF771FF03B05DF804FB37B501230C46C4
:101558000DF1060248F271010546FFF75DFFB0B9CB
:101568009DF8063004F00F0423F00F0323438DF891
:10157800073048F27101012328460DF10702FFF7F1
:1015880052FF003818BF0120404203B030BD4FF071
:10159800FF30FAE737B501230C460DF1060248F291
:1015A80071010546FFF738FFB0B99DF8063024F001
:1015B8000F0403F00F0323438DF8073048F271013D
:1015C800012328460DF10702FFF72DFF003818BF49
:1015D8000120404203B030BD4FF0FF30FAE707B5B5
:1015E80001238DF807100DF1070248F24D01FFF7AE
:1015F8001AFF03B05DF804FB0A46042348F24011C1
:10160800FFF70ABF70B50546002001F0FBF800207F
:101618000E490870487001F0D1F9044630B102F063
:101628007CFBBDE87040002001F0ECB8084E014694
:10163800324608480EF0AFFC3346204606FB05F25A
:10164800044901F0A5F80028EBD0E8E73C010020A8
:1016580000B80B0000000C204FF000624FF48033FC
:10166800C0E900234FF480524FF40063C0E902320E
:101678004FF400434FF48071C0E9043283614FF4A2
:101688000023C0E907130020704770B50D469AB0D3
:1016980000210646144606A850220EF07CFC1422AF
:1016A800002101A80EF077FC2DB9012C4DD14FF087
:1016B800FF301AB070BD042204F1FF3CDCF10003D6
:1016C80043EB0C03DB0009920B93002D40D0102351
:1016D80040F2FA520A934FF48063601E0D9343421E
:1016E80043410892DA020F924FF44052002D0E92B5
:1016F80014BF4FF080624FF080724FEAC3631492B8
:1017080016932DD0012C26D10523179302224FF0D2
:10171800005318930123102102934FF4800315926C
:10172800CDE9043141F28832304606A906F02EFF91
:101738000028BCD141F28832304601A907F054F89C
:10174800003818BF01204042B3E701222B46BAE710
:1017580005222B46C1E70423179301220023D8E76B
:10176800012CFAD1D2E7F0B50C4695B006461546DD
:101778000021502268461F460EF00DFC012C04D1B2
:101788002DB94FF0FF3015B0F0BD002C32D0042237
:101798001023CDE903234EF613424FF48063002D46
:1017A800079314BF4FF440534FF4005308931A9B08
:1017B800002C06930CBF0823062302920CBF4FF09F
:1017C80080724FF0806211931B9B0E92694641F222
:1017D800883230460F9306F0D9FE0028D1D141F265
:1017E80088323946304606F0A9FF003818BF012074
:1017F8004042C8E70123002D039314BF0C220B229B
:101808004FF48073CBE7F0B595B0044617460D4604
:101818005022002168461E460EF0BDFB0423082115
:1018280003931023CDE904314EF6116302934FF46C
:1018380080634FF4006E07934FF44053CDE9083EA0
:101848004FF080634FF000610E930623CDE910132B
:101858004FF0005341F288326946204606970F96AA
:10186800129306F093FE58B941F288322946204671
:1018780006F064FF003818BF0120404215B0F0BDE3
:101888004FF0FF30FAE7F0B50C469BB00021064652
:10189800154606A850220EF07EFB1422002101A84E
:1018A8000EF079FB2CB9012D5DD14FF0FF301BB044
:1018B800F0BD0422691E4B424B41DB0009920B9399
:1018C800002C53D010230A9340F2F96341F2883276
:1018D800304606A9089306F059FE03460028E4D1CD
:1018E800002C05F1FF3240F2FA5C12BF4FF4806E13
:1018F8004FF0050C4FF0000E57425741FF02002CE5
:1019080036D0012D3AD04FF08060042401211A46C8
:101918004FF440550E9500251490159118923046B5
:1019280041F2883206A9CDE91634CDF820C0CDF8A9
:1019380034E00F970C9506F029FE0028B5D1022354
:101948001022CDE901334FF480030390CDE904322E
:10195800304641F2883201A906F046FF401B18BF05
:1019680001204042A3E701222346A7E70623ADE76B
:10197800012D0CD023464FF08070C7E74FF000636D
:101988004FF08060052402214FF00052C0E74FF06D
:1019980000634FF08070F6E7F0B50D4695B0064647
:1019A80014460021502268461F460EF0F4FA2DB95D
:1019B800012C40D14FF0FF3015B0F0BD0423611E5B
:1019C8004A424A41D20003930592002D36D0102393
:1019D80047F28D2204934FF480630793631E0292AB
:1019E8005A425A41D30209934FF44053002D0893A9
:1019F80014BF4FF080634FF080734FEAC2620697BE
:101A08000E9310921ED0012C0CBF0223012341F229
:101A18008832694630460F9306F0B8FD0028C9D1D0
:101A280041F2883230461AA906F044FE003818BF41
:101A380001204042C0E701232A46C4E772224FF43E
:101A48008073CAE70123E2E7F0B50D4695B0064674
:101A580014460021502268461F460EF09CFA2DB904
:101A6800012C44D14FF0FF3015B0F0BD0423611EA6
:101A78004A424A41D20003930592002D3AD01023DE
:101A880047F28E1204934FF480630793631E029209
:101A98005A425A41D30209934FF44053002D0893F8
:101AA80014BF4FF080634FF080734FEAC26206970D
:101AB8000E93109227D0012C20D1052311930222D6
:101AC8004FF000530F92694641F288323046129324
:101AD80006F05CFD0028C5D141F2883230461A99DB
:101AE80006F02CFE003818BF01204042BCE7012355
:101AF8002A46C0E771224FF48073C6E70423119386
:101B080001220023DEE7012CFAD1D8E770B50D4693
:101B180094B0064614460021502268460EF03BFA5F
:101B2800D5B9012C1CD001230393631E5C425C4190
:101B3800E400059495B11023049346F2996341F2A9
:101B4800883269463046029306F020FD003818BFF7
:101B58000120404214B070BD0423E5E76623EEE798
:101B68004FF0FF30F6E770B50D4694B006461446C0
:101B78000021502268460EF00EFABDB9012C1DD086
:101B880001232C4603930594B5B11023049349F619
:101B9800661341F2883269463046029306F0F6FC35
:101BA800003818BF0120404214B070BD631E5C426B
:101BB8005C41E4000423E5E79923EAE74FF0FF30AE
:101BC800F2E7000070B50025144C0368026A236030
:101BD8004368226263608368426AA360C368104EE8
:101BE800E3600369626223614369826A63618369AE
:101BF80006F11401A361C369C6E903552846E361E8
:101C0800A2629847236A06F1180128469847284691
:101C1800A36A06F11C01BDE8704018474001002086
:101C28006C010020024AD3685B01D050704700BFA6
:101C38006C010020024BDA6803EB421358607047CE
:101C48006C010020024BDA6803EB4213986070477E
:101C58006C01002013B5049CCDE90034044B5C688A
:101C680013460A46014603480069A04702B010BD62
:101C7800400100206C010020F7B50D4C05460D48C9
:101C880086682069E469022C10D15C091F0A04F4F3
:101C9800FC6407F478473C43C3F3C4031C43009433
:101CA80013460A462946B04703B0F0BD0093F7E74C
:101CB8006C01002040010020F7B50D4C05460D4889
:101CC800C6682069E469022C10D15C091F0A04F473
:101CD800FC6407F478473C43C3F3C4031C430094F3
:101CE80013460A462946B04703B0F0BD0093F7E70C
:101CF8006C0100204001002013460C4A70B496691C
:101D08000B4A05461069D269022A09D15C091A0AE8
:101D180004F4FC6402F478421443C3F3C403234379
:101D28000A46B446294670BC604700BF40010020FF
:101D38006C0100202DE9F04F4FF00108424FADB083
:101D4800FB68CDE9060107EB43139968203ACB8875
:101D58008D880393EB1D23F00700049007980C6807
:101D6800461C03984FEAD3094243DB1003FB0244A5
:101D7800731E0593079B039AF31A013B9A4202D8F4
:101D88002DB0BDE8F08FB9F1010F227805D0B9F177
:101D9800020F16D1228852BA92B2F96807EB4111A4
:101DA800CB69022B14D04FF0000C049B0DF1500AA4
:101DB80003F1FF3B654537D82B46CDF8008014AAC0
:101DC80013E06378120442EA0322A3781A43E4E793
:101DD8004FF0000C049B0DF1200E03F1FF3B65450D
:101DE8000AD82B46CDF8008008AADDE90510FFF7D0
:101DF80031FF01364C44BBE7ABEB0C0308FA03F3A5
:101E0800134214BF086848680CF1010CC0F3C403FE
:101E18004FEAD04A400943EACA2300F4FC6003436E
:101E28009BB22EF8023BDAE7ABEB0C0E086808FA17
:101E38000EFE1EEA020F4B6818BF03460CF1010C98
:101E48004AF8043BB6E700BF6C0100202DE9F843CF
:101E58009946DFF88C80044610460F461646FEF772
:101E680031FAD8F80C30D8F8145008EB43139B68B3
:101E7800B9F1010F9B88B5FBF3F51AD0B9F1020F40
:101E88001CD047F6FE73621E9A4288BF01240025C3
:101E9800D8F80C30725D08EB43139B689988D8F822
:101EA800143005FB11339BB2994200D852B9BDE8F2
:101EB800F8832D1A5D4304EB5504E2E72D1A5D43C0
:101EC8002C1BDEE720463946FFF734FFD8F80C30E4
:101ED800013508EB43139B689B881C44D8E700BF77
:101EE8006C0100202DE9F04F141A002CA3EB010619
:101EF800B8BF6442002EB8BF764224B236B28242DE
:101F080034BF4FF0FF3701278B4234BF4FF0FF3803
:101F18004FF00108B44285B00FFA80F90FFA81FA40
:101F28000EDB009700273B4604EBD4756D104FF08D
:101F3800000B0FFA8BF294420FDA05B0BDE8F08F70
:101F4800234606EBD67534461E4643464FF0000836
:101F580045F34F05CDF80080E9E70E9A1FFA89F09E
:101F68001FFA8AF135440393CDE90101FFF7C4FE56
:101F7800AAB22DB2AC42039B09DC01980299121B4C
:101F88003844414415B20FFA80F90FFA81FA009AE1
:101F98009A4491440FFA89F90FFA8AFA0BF1010B66
:101FA800C7E72DE9F0411F460E4605461446DDF801
:101FB80018804346FFF760FE791E434622462846AE
:101FC8003144FFF759FE013C43463A46314628461C
:101FD800FFF772FE43463A4631466019BDE8F041C4
:101FE800FFF76ABE2DE9F84F80468A46144699469F
:101FF80000265700404DC7F10307AB69AAEB040B55
:102008009B4515D26B6908EB0600834205D94A4601
:102018001FFA8BF180B2FFF76FFE6B69A8EB060021
:10202800834205D94A461FFA8BF180B2FFF764FE56
:10203800AB69AAEB060B5B4515D96B6908EB040085
:10204800984205D24A461FFA8BF180B2FFF754FE38
:102058006B69A8EB0400984205D24A461FFA8BF137
:1020680080B2FFF749FEAB690AEB040B9B4515D21A
:102078006B6908EB0600834205D94A461FFA8BF1C3
:1020880080B2FFF739FE6B69A8EB0600834205D9D9
:102098004A461FFA8BF180B2FFF72EFEAB690AEBB6
:1020A800060B5B4515D96B6908EB0400984205D20D
:1020B8004A461FFA8BF180B2FFF71EFE6B69A8EB48
:1020C8000400984205D24A461FFA8BF180B2FFF706
:1020D80013FE002FB5BF0637331B07EB86070A37F9
:1020E800A8BF04F1FF3406F10106A8BF07EB830778
:1020F800B44282D2BDE8F88F6C010020F7B50F4CCE
:1021080006460F48089D07692069E469022C13D127
:102118006C094FEA152C04F4FC640CF4784C44EA7E
:102128000C04C5F3C4052C430194009313460A46D6
:102138003146B84703B0F0BD0195F6E76C010020C1
:102148004001002007B50021044A0090D2E9052388
:102158000846FFF7D3FF03B05DF804FB6C010020CD
:102168002DE9F74F8046894692461D4616460024BB
:102178005700C7F1030796B1B04509EB0401A9EB75
:10218800040B3AD808EB06022B4600200092FFF712
:1021980073FD2B4659460020009AFFF76DFD94B158
:1021A800A045A9EB060109EB060B33D808EB04029E
:1021B8002B4600200092FFF75FFD2B465946002072
:1021C800009AFFF759FD002FB5BF0637A31B07EB91
:1021D80084070A37A8BF06F1FF3604F10104A8BF37
:1021E80007EB8307A642C6D22B46524649464046CD
:1021F80003B0BDE8F04FFFF7F5BE7200A8EB06008C
:102208002B46CDE90002FFF737FD2B465946019AC8
:102218000098C2E76200A8EB04002B46CDE9000253
:10222800FFF72AFD2B465946019A0098C9E7000096
:102238000F4A08B51368013B13600BB1002008BDB5
:1022480002210C4802F058FC0A48012102F054FC13
:10225800094A0A48D2F89C3023F48003C2F89C301B
:1022680002F06EFE0028E9D06FF00700E7E700BF34
:10227800040C002000140242000C0246AC010020AD
:102288000023012210B54160C0E90232C0E90433DD
:10229800C0E906330362044602F0FDFD014608B1B9
:1022A800012010BD204603F022F801460028F7D18E
:1022B800204603F042F8003818BF0120F1E700007B
:1022C8002DE9F04F9E4B9F4893B003609E4B1C68CE
:1022D8001CB1002013B0BDE8F08F01271F6003F088
:1022E80001F80028F5D102264FF012094FF0040832
:1022F800964D9748D5F88C300DA943F02003C5F8C2
:102308008C30D5F88C3003F020030A930A9BD5F85B
:102318008C3043F02003C5F88C30D5F88C30CDE9EB
:102328000D6903F020030B930B9BCDE90F46CDF805
:10233800448002F0D5FA86480DA9CDE90D79CDE99A
:102348000F46CDF8448002F0CBFAD5F89C3043F420
:102358008003C5F89C30D5F89C3003F480030C93B7
:102368000C9B6B6F43F480036B676B6F23F48003E4
:102378006B6704F039F800286DD0764B224603EBE2
:102388005003B3FBF0F0A24601464FF0100900EBF2
:102398004005C5F1320323EAE37300936E4B00FA5C
:1023A80006F6C6F5C3761B68DFF8B0B126EAE6760E
:1023B80088464FF0000CB8F5AF7FCDF804C00CF19B
:1023C800010C5BD30027BE46009DBD4250D8BE42DB
:1023D8004ED391454CD0142505FB03FA019D0133DA
:1023E8000BEB0A097F2BC9E9015E4BF80A203CD99F
:1023F800594A1360584B00271B684FEA400B069355
:1024080040F6C41304934FF0FF3300930BF13203EB
:102418000993CBF58063013350490293069B9F4291
:1024280038D1009B7F2B16D81421009A4B4B4A4376
:1024380099180C7C9B5844EA03744B681B0503F4F9
:1024480070031C438B681B0403F470231C43CB6884
:102458001B029BB21C4321463A48FFF711FF002894
:102468003FF437AF6FF0070034E791464FF0010AA9
:102478000EF1010EBEF1100F0F44A5D1BCF1100FE3
:10248800884498D10132102A014491D1BAF1000F41
:10249800AED1AFE74FF0000C0B68099D03FB0003BA
:1024A8001D440395029D03EB0B06ED1A6D00019583
:1024B800A6F63406039D089640F214529542CDF8CC
:1024C80014C00CF1010C30D9A5F13206B0EB960F0F
:1024D8002BD24FF0000E089EDDF80490DDF80C803A
:1024E8002E4440F2124206F2A11A9245CDF81CE0A1
:1024F8000EF1010E12D8B8F5167F0FD340450DD254
:1025080036EA260A28BFCA46049A924506D2059A90
:10251800CDF810A00A61079A0097CA60BEF5807FBF
:1025280098441E44A9EB0309DBD1019ABCF5807FCE
:10253800A2EB03021D440192BED1013714316DE7AD
:1025480000580040AC010020040C0020000C02469A
:102558000014024200CA9A3B000200200402002034
:102568001FB54FF47A740092CDE901340A4602236C
:102578000146074802F0FEFC40B1054802F0B5FEEE
:10258800042814BF6FF003006FF0650004B010BD9D
:10259800AC0100201FB54FF47A740092CDE90134E4
:1025A8000A4602230146074802F0BEFD40B105482D
:1025B80002F09BFE042814BF6FF003006FF0650063
:1025C80004B010BDAC01002001F0E6BE30B5214CCE
:1025D80085B0A27861782048FFF755F918B16FF0F7
:1025E800040005B030BD07230093A2784FF4407370
:1025F80061781948FFF7D0F90028F0D1A2786178FE
:102608001548FFF740F903460028E8D10125009551
:10261800A27861781048FFF7BFF904460028DED198
:10262800282001F0BFFE224629460B48FFF72DF867
:1026380003460028D3D103AA009229460246064839
:10264800FFF702FA0028CAD19DF80C30AB42C8D077
:10265800C5E700BF080C00200C0C002030B5274D42
:10266800274C85B02046AA786978FFF70CF918B18D
:102678006FF0040005B030BD0723009320464FF4E7
:102688004073AA786978FFF787F90028F0D12046C7
:10269800AA786978FFF7F7F803460028E8D10222FC
:1026A80000922046AA786978FFF776F90028DFD1EA
:1026B800282001F077FE4FF08073E3604FF08053DD
:1026C8002046E36205F094FEA8B90122204611468F
:1026D800FEF7DBFF03460028CAD103AA00920122B5
:1026E80020461146FFF7B0F90028C1D19DF80C30FB
:1026F800022BBFD0BCE76FF00300BBE7080C00203B
:102708000C0C002001230F4A4FF0020CC0E90023F3
:102718000B684A68036100234262C3628A68C0E9A1
:1027280005C3C361036383600362CB688262012BC4
:102738004FF08073C36004BF4FF08053C36205F04D
:1027480057BE00BF00340D4200B5B9B0BC2200210D
:1027580009A80DF020FC00220123CDE900234FF445
:102768000003042130934123CDE903130223CDE96B
:10277800053307930C2308934FF400330A9303237C
:102788006846029303F014FF39B05DF804FB0000BB
:10279800F7B5A8B90C48877877B9CDE900230B4677
:1027A800012241780948FEF7DEFF18B16FF00400F6
:1027B80003B0F0BD0020FBE70448FFF724F8F4E776
:1027C8006FF00100F4E700BF080C00200C0C00209B
:1027D80010B550B9094C2378022B09D1084806F0E6
:1027E80058F840B90123237010BD6FF00100FBE7D2
:1027F8006FF01A00F8E76FF00300F5E7080C002007
:102808000C0C002010B500285BD12F4C23780BB995
:10281800002010BD022B4DD0002308212B48237027
:102828006370A37002F068F90421284802F064F983
:102838004FF40071264802F05FF94FF48061244894
:1028480002F05AF94FF40061214802F055F94FF4AB
:1028580080511F4802F050F94FF400511C4802F013
:102868004BF94FF480411A4802F046F94FF4004101
:10287800174802F041F90121144802F03DF91348C4
:10288800022102F039F9134B13489A6E42F4805230
:102898009A669A6E22F480529A66D3F8902022F4AF
:1028A8008052C3F8902005F05DFE0028B0D06FF08C
:1028B8000300AEE7FFF78CFF0028ADD06FF00400EF
:1028C800A7E76FF00100A4E7080C002000200242EF
:1028D800001C0242000C02460C0C00202DE9FF41AE
:1028E8000D46164600285FD1324C2378022B5ED065
:1028F8006378012B4FD10129A27809D1964207D1DB
:102908000123002023706570A67004B0BDE8F08133
:10291800294F01213846FEF7B6FF034610B16FF084
:102928000400F2E70090ADF80C00A2783846617810
:10293800FFF732F880460028F1D1282001F032FD57
:10294800A378012B1BD000221B481146FEF79DFEE1
:1029580003460028E3D103AA01460092024616481E
:10296800FFF772F80028DAD19DF80C30002BD6D189
:10297800012DC5D1A37893B9FFF770FE11E0384651
:10298800C7F80C80C7F82C8005F032FD0028DAD093
:102998006FF00300B9E70129B2D1002AECD1FFF7A3
:1029A80015FE0028B1D1ABE76FF00100ADE76FF07D
:1029B8001900AAE7080C00200C0C00202DE9F043B0
:1029C8000E469BB0002840F05681AE4D2F781FB1BF
:1029D80000201BB0BDE8F083AB4B4FF00208D3F8E2
:1029E8009020082442F48052C3F89020D3F8902015
:1029F8004FF0010902F480520192019A9A6EA3489D
:102A080042F480529A669A6E11A922F480529A660C
:102A1800D3F88C2042F48072C3F88C20D3F88C2031
:102A280002F480720292029AD3F88C2042F080025B
:102A3800C3F88C20D3F88C2002F080020392039A0A
:102A4800D3F88C2042F08002C3F88C20D3F88C2075
:102A580002F080020492049AD3F88C2042F080029B
:102A6800C3F88C20D3F88C2002F080020592059AD6
:102A7800D3F88C2042F08002C3F88C20D3F88C2045
:102A880002F080020692069AD3F88C2042F0800267
:102A9800C3F88C20D3F88C2002F080020792079AA2
:102AA800D3F88C2042F08002C3F88C20D3F88C2015
:102AB80002F080020892089AD3F88C2042F0800233
:102AC800C3F88C20D3F88C2002F080020992099A6E
:102AD800D3F88C2042F08002C3F88C20D3F88C20E5
:102AE80002F080020A920A9AD3F88C2042F08002FF
:102AF800C3F88C20D3F88C2002F080020B920B9A3A
:102B0800D3F88C2042F08002C3F88C20D3F88C30A4
:102B180003F080030C930C9B4FF40073CDE911383C
:102B280003231594CDE9139301F0DAFE04235848E2
:102B380011A91193159401F0D3FE554811A91194C8
:102B48001397159401F0CCFE4FF480634F4811A9F8
:102B58001193159401F0C4FE4FF400634B4811A97A
:102B68001193159401F0BCFE4FF48053474811A906
:102B78001193159401F0B4FE4FF40053434811A982
:102B88001193159401F0ACFE4FF480433F4811A90E
:102B98001193159401F0A4FE4FF400433B4811A98A
:102BA8001193159401F09CFE394811A9CDF8449071
:102BB800159401F095FE11A93548CDF84480159477
:102BC80001F08EFE11A8FEF747FD119B93FAA3F3BF
:102BD800B3FA83F30D9300230F9373780DA92D484F
:102BE80010930E97FFF78EFD2A48FFF7ADFD0246BA
:102BF800002843D101462748FEF788FF024610B156
:102C08006FF00400E5E601462248FEF7ACFF0246F5
:102C18000028F5D101211F48FEF778FF0246002859
:102C2800EED101211B48FEF79EFF0028E8D10122C2
:102C380018481146FEF76AFF0028E1D1012215481D
:102C48001146FEF790FF0028DAD101236870A870BA
:102C580064202B7001F0A6FBAA7869780D48FEF76E
:102C680014FD0028CCD172783178FFF737FE0028A0
:102C78003FF4AEAEC4E76FF00100AAE66FF00300C0
:102C8800A7E600BF080C0020000C0246001C024208
:102C9800002002420C0C002018B9034BDB680B60C3
:102CA80070476FF0010070476C0C002010B9034B9F
:102CB800996070476FF00100704700BF6C0C0020EE
:102CC80018B9034B1B680B6070476FF00100704721
:102CD8006C0C002018B9034B5B680B6070476FF0F1
:102CE800010070476C0C0020F0B534270B4D4601ED
:102CF80005EB401084680A48AD5907FB040005FB42
:102D08000212816CC46D21B954F8222000201A6087
:102D1800F0BD34F8122092B2F8E700BF6C0C002026
:102D28008C0C0020F0B534270A4D460105EB401005
:102D380084680948AD5907FB040005FB0212816C41
:102D4800C46D19B944F822300020F0BD9BB224F8B4
:102D58001230F9E76C0C00208C0C00202DE9F84F9C
:102D680080460E4614461D460B9B03EB02090D4B8D
:102D780003EB401A4C4512D00A9B374603EB060B6F
:102D880009E02B68394622464046FFF7CBFFDAF8C0
:102D9800103001371D445F45F3D10134EAE70020C4
:102DA800BDE8F88F6C0C00202DE9F04F3427374E22
:102DB8004FEA401C56F80C4006EB401004FB021288
:102DC8000469334980689D8B07FB0011CF6DD3F8E8
:102DD8000AE004FB0277A5F12002072AD3F812B013
:102DE800D3F8169085B01CD9A5F11002072A8CBF1C
:102DF8004FF0010A4FF0020A4FF00008ED080BFBF4
:102E080005F509F1FF3205FB02EE03EB0E046B42F8
:102E1800204D03936644C84506D1002005B0BDE89F
:102E2800F08F4FF0000AE7E7F3681A489A1E5342FA
:102E380053414FF480325B00C5E901230023FF2290
:102E4800C5E9113AEB60EB646B65134B2A652B609F
:102E580001F0FDFB88B90121284601F0CDFC60B9DD
:102E680001233A46009321465B460A4801F02CFCB0
:102E780018B93221074801F041FC3368326908F17A
:102E8800010802FB0377039B1C44C4E76C0C002079
:102E98008C0C0020340D002000B002402DE9F341D5
:102EA8001F46244B1546DDE9082603EB4013DB6873
:102EB8000C46022B39D140F2031E40F20F2CC6F308
:102EC8004510C6F3C4210EFB00F00CFB01F106F01F
:102ED8001F060CFB06F6213017318009890900020C
:102EE800173640EA014040EA961040F07F464FF41A
:102EF8004031DFF84880C8E901130F4B4046C8F855
:102F08000C20C8F8003001F0A2FB80B92B462246FD
:102F180031464046009701F0D7FB40B93221404680
:102F280002B0BDE8F04101F0E9BB0023DFE702B0E1
:102F3800BDE8F0816C0C002000B00240340D002088
:102F480073B515460D4C46011A4604EB4013A459B7
:102F58001E6904FB051134259C68094B05FB0433E5
:102F68000024DD6D069B06FB0151019300940123AB
:102F7800FFF794FF204602B070BD00BF6C0C002024
:102F88008C0C0020F7B534270C4D460105EB401496
:102F9800AD59266902FB0511A468094A013D07FBE2
:102FA8000422D46D089A06FB014101920095012282
:102FB800FFF774FF002003B0F0BD00BF6C0C0020C9
:102FC8008C0C0020F7B5154634271A460C4B4601E1
:102FD80003EB40149B59266905FB0315A168094CAE
:102FE8009B1A07FB0144E16D099C009306FB051140
:102FF800089B0194FFF752FF002003B0F0BD00BF0B
:103008006C0C00208C0C002070B400240D4DC0E91D
:103018000244C0E9005404610B240E191331C16243
:103028001119133202634FF6FF720325828680F866
:1030380036204561C461466285610462816270BC64
:1030480002F022BA00680140F0B515698FB0059505
:103058004FF0FF0C00254FF4C06ECDE906C54FF0C8
:10306800070C176896685468D368526902940493E9
:103078000A929B1B0A46E41B01A9CDE908EC0197BB
:1030880003960B940C93ADF834508DF8365002F03B
:1030980067FA0FB0F0BD00B5B9B0D822002102A878
:1030A8000CF079FF00220223CDE9002304227D23BE
:1030B800CDE90C2308231421CDE90E330C23CDE9E7
:1030C80010134FF4A0231393032368460B9303F0C4
:1030D8006FFA39B05DF804FB2DE9F04F0129074676
:1030E800984697B000F25181002840F04E81531E57
:1030F800012B00F24A81022A0CBF13460423A44E76
:10310800A44CC6E90323209B08BF17467360A24A54
:10311800A24BC6F800801A60D4F8A430DFF89CB23D
:10312800DFF89CA243F08063CBF800A0C4F8A43079
:10313800D4F8A430022103F080630293029BD4F8F0
:103148008C304FF4007243F00203C4F88C30D4F88A
:103158008C304FF0010903F002030393039BD4F86A
:103168008C308F4843F00403C4F88C30D4F88C308A
:10317800082503F004030493049BD4F88C3043F02F
:103188000803C4F88C30D4F88C3003F00803059396
:10319800059BD4F88C3043F01003C4F88C30D4F875
:1031A8008C3003F010030693069B0023CDE910131F
:1031B8000F9207220FA91392CDF8489001F090FBC7
:1031C800042177480F910FA9139501F089FBC021BD
:1031D800072274480F910FA9139201F081FB4FF455
:1031E800407270480FA90F92139501F079FB4DF6C4
:1031F80003726D480FA90F92139501F071FB4FF6FA
:1032080080726A480FA90F92139501F069FB4FF479
:10321800005265480FA90F92139501F061FB6348AE
:103228000FA91395CDF83C9001F05AFB40225E4857
:103238000FA90F92139501F053FB5B480FA90F9547
:10324800139501F04DFB1025002358480FA9CDE92F
:103258001139CDF840900F9501F042FBE36F4A46D3
:1032680043F08063E367E36F294623F08063E367F5
:103278004E4801F0C3FCDBF80030534513D1D4F8B5
:10328800883043F48023C4F88830D4F8883003F4B5
:1032980080230193019B236E43F480232366236ECE
:1032A80023F4802323663D48FFF7F5FE28B16FF02D
:1032B8000307384617B0BDE8F08F4146209A3748D3
:1032C800FFF7A2FE04460028F1D1209B0146CDE974
:1032D8000C37374BCDE9090809AA0B902F480E93F4
:1032E800FFF7B2FE334D344B0028284614BF6FF069
:1032F800030700272B6004F076FA264B4FF00108ED
:10330800D3F88C200FA942F01002C3F88C20D3F810
:103318008C20264802F010020792079AD3F89C20C6
:1033280042F00202C3F89C20D3F89C3003F0020359
:103338000893089B0223CDE91034CDE9128340237A
:103348000F9301F0CDFA1B236B60C7232846C5E90C
:103358000334C5E90544AC6004F00CFC60230F930A
:103368006423109332230C220FA92846F361CDE978
:103378001244CDE91444119404F084FC0C2128462D
:1033880004F066FEC6F8188093E76FF0010790E72F
:103398006C0C0020000C0246006801408C0C0020D8
:1033A8000004024200080242000C024200100242DD
:1033B80000000C209C0D002000040040340D00206B
:1033C80000B0024030B9054B4A001B681A64044B30
:1033D800D96170476FF00100704700BF9C0D002055
:1033E8006C0C002018B9034BDB690B6070476FF059
:1033F800010070476C0C00202DE9F0410C4688B0A4
:10340800002864D10B685A1EB2F5487F5FD24A681B
:10341800511EB1F5F07F5AD2934228BF1346E26895
:103428009A4254D8BA23ADF810302A4B2A4D029349
:103438002A4B019003932A4B28460693294B02A94D
:103448000593294B0793FDF7C7FF28B14FF0FF35C8
:10345800284608B0BDE8F081284601A9FDF7EDFE31
:103468000028F3D1214B019A9A42EFD1204B214FEA
:10347800DFF8888028463D60C8F800301B68984708
:1034880005460028E2D123681B4E3868336063681C
:1034980002A97360A368B360E368F360D8F80030EA
:1034A800DB69984700280FDB039B22683361049B84
:1034B80061687361E3681A440B4401320133C6E959
:1034C8000723B2617362C3E76FF00405C0E76FF0CA
:1034D8000105BDE7C9220008E80D002039220008CF
:1034E8009D25000869250008D125000839313100DB
:1034F80000000020380E0020100E0020480E00208A
:1035080030B5044687B000283ED1224B224DD3F86F
:103518008C2001A942F01002C3F88C20D3F88C301B
:10352800039003F010030093009B202301930223D0
:1035380004931A4B1A48029301F0D2F921462868DD
:10354800FDF766FF174B28681B681B6A9847002819
:103558001DDB1549154801F0BCF9014618B16FF09B
:10356800030007B030BD124A104801F0A5F904461F
:103578000028F4D102460F21102000F037FF102058
:1035880000F064FF2046ECE76FF00100E9E76FF018
:103598000400E6E7000C0246380E00200000111077
:1035A80000100242480E0020050000063C0E0020D4
:1035B800C135000870470000002010B5FFF7FAFF7A
:1035C800BDE81040024B034A1B6810689B6A184705
:1035D800480E0020380E00202DE9FF410C46002837
:1035E80050D12A4B2A4A1B6810681B6901A99847C1
:1035F800002844DB2749019E8D69086A002E3AD0CD
:10360800DDE902C7D1F808E0D1F810801EF0080FF4
:1036180015BF3B46634662463A461EF0020F1CBF82
:1036280008F1FF33A3EB0C03D1F814C01EF0040F0C
:1036380018BFACEB07020F687B434F68B3FBF8F386
:103648007A43B2FBFCF2AB42CF688CBFA3EB050C0C
:10365800A5EB030C824226608CBF161A861A6745B2
:103668006360A26001D3B74206D28B610A62002070
:1036780004B0BDE8F0812660C4E90150F7E76FF0B7
:103688000400F5E76FF00100F2E700BF480E0020E4
:10369800380E0020100E002030B59FB060220021A7
:1036A80006A80CF078FC1822002168460CF073FC80
:1036B8004FF4403001F08AFF044608B172B6FEE7C5
:1036C80001F07CFF1B4A0325D2F8F0304FF0140EAE
:1036D80023F01803C2F8F03025224FF48033CDE9E7
:1036E8000623812308934FF4805301221193022368
:1036F8001692CDE914350822CDE91A330C2306A811
:10370800CDE918E2CDE91C34179402F00DFA08B19E
:1037180072B6FEE71F23CDE90200CDE904000421BB
:103728006846CDE9003502F09DF808B172B6FEE7AB
:103738001FB030BD000C0246F0B599B000F0F6FDA0
:10374800022001F08BFF044608B172B6FEE7FFF7CE
:10375800A3FF1422214611A80CF01DFCB84B10261B
:10376800D3F88C20012742F01002C3F88C20D3F83C
:103778008C20022502F010020292029AD3F88C20C3
:10378800102142F00402C3F88C20D3F88C20AD48F5
:1037980002F004020392039AD3F88C2042F020022C
:1037A800C3F88C20D3F88C2002F020020492049AEB
:1037B800D3F88C2042F08002C3F88C20D3F88C20F8
:1037C80002F080020592059AD3F88C2042F001029B
:1037D800C3F88C20D3F88C2002F001020692069AD6
:1037E800D3F88C2042F00202C3F88C20D3F88C2046
:1037F80002F002020792079AD3F88C2042F00802DE
:10380800C3F88C20D3F88C2002F008020892089A9A
:10381800D3F88C2042F48072C3F88C20D3F88C3013
:10382800012203F480730993099B01F0E7F98548A5
:1038380011A9CDE91167CDE9134401F051F8824B84
:10384800824811A9CDE91153139401F049F8804B2E
:103858007E4811A9CDE91237119601F041F84FF4CD
:10386800C063CDE911350723784811A91593CDE92F
:10387800134401F035F84FF4C053744811A9CDE949
:103888001135CDE9134401F02BF8224621460C20CE
:1038980000F0ACFD0C2000F0D9FD224621460F2097
:1038A80000F0A4FD0F2000F0D1FD1C22214611A834
:1038B8000CF071FB674D684B4FF07F0CC5E9003485
:1038C800FF23C5E902C34FF08043C5E907344FF42D
:1038D80000732846C5E90444C5E90934AC6103F01E
:1038E8005FFB08B172B6FEE74FF40043CDE9140060
:1038F800169011A92846119303F0DEFC08B172B6A0
:10390800FEE7564C564BC4E903702360A3F1766377
:10391800A3F57B23A3F61423C4E90130C4E9050009
:10392800C4E90700204601F0B6FA014608B172B6AC
:10393800FEE7204601F0DBFC014608B172B6FEE75F
:10394800204601F0FAFC044608B172B6FEE70146CB
:10395800324611A80CF01FFB424D434B2846C5E9DF
:1039680000344FF0FF33CDE90D44C5E903340F941B
:10397800AC60AC6104F0CEF808B172B6FEE74FF463
:103988008053284611A9119304F002FA08B172B6BF
:10399800FEE70D900F900DA9284604F05BFB034647
:1039A80008B172B6FEE73148314AC0E90233C0E9CE
:1039B8000023C0E90633C0E91133C0E91333C0E975
:1039C800153300F044FE08B172B6FEE7012127481E
:1039D80000F012FF08B172B6FEE701F0D3FC05460D
:1039E80008B172B6FEE7014610220DA80CF0D3FA12
:1039F8001C22294611A81F4CCDE90A550C950CF03C
:103A0800CAFA1D4B2046C4E900354FF0FF33A560C4
:103A1800C4E90335A56104F07DF808B172B6FEE784
:103A28004FF4805320460DA90D9304F0B1F908B165
:103A380072B6FEE7204604F09DF8F8B172B6FEE7CC
:103A4800000C024600100242000031100000024241
:103A580000002110880F002000780046CC0F0020BD
:103A680000580040F00E00200008004080100020A0
:103A780000B002403C0F0020000400400A900C9067
:103A88000AA9204604F0E6FA08B172B6FEE76023F8
:103A98001390CDE9113015900C22204611A904F09D
:103AA800F1F8054608B172B6FEE7204600F00EFBB5
:103AB80042F20F73744C754E2046C4E9006341F618
:103AC8003F73E3608023CDE911551395A560A36189
:103AD80004F020F808B172B6FEE71190139011A90E
:103AE800204604F0B7FA034608B172B6FEE7012291
:103AF8006748684DC0E90233C0E90052C0E90432A2
:103B0800C0E90633C0E90833C0E90A33C0E90E3317
:103B1800036304F06DFC08B172B6FEE700235E484B
:103B28005E4CC0E9004303F0E7F808B172B6FEE75F
:103B38009F235B4C5B4ACDE91100C4E900234FF693
:103B4800FF73E36080231390A0602046A36103F015
:103B5800E1FF08B172B6FEE71190139011A9204653
:103B680004F078FA044608B172B6FEE74FF4F0752F
:103B7800FEF748FE4FF448730222012120460095C3
:103B8800FFF7AAFA20460DA9FFF79AF8204611A9CF
:103B9800FFF7A0F80095012502224FF44873012190
:103BA8002046FFF799FA40490D9B20460B60119B70
:103BB800C1E902544B60FFF71FFC2046FFF7A0FC49
:103BC80020463A49FFF70EFC29462046FFF7FAFB44
:103BD800374E36492046FFF705FC3648FDF7F2FF19
:103BE800354A214630460CF0D6F90AF0BBFD334B76
:103BF800C3F8AC605D6200F0A3FA0321304803F01B
:103C080054FB304B187008F0D5FF09F08DF80221ED
:103C18002B4803F04AFB2C4B187009F041FE09F0C1
:103C280083F8204608F0A0FE21462046FFF7CAFB8D
:103C38000C20FDF7E7FC642421460020FFF7C2FBB7
:103C4800322000F0AFFB013CF6D2002008F08CFED9
:103C5800164C32210020FFF7B5FB322000F0A2FB02
:103C680009F0F6F821680020FFF7ACFB2146002098
:103C7800FFF7B8FB09F004F908F068FE09F082F9CB
:103C88000AF010FDFAE700BFA40E00200010004063
:103C98002010002000340D42B80F002000080C420C
:103CA800580E002000140040E81000204C0E0020A0
:103CB80000000C20A82901080070170000680140C6
:103CC800880F0020B3110020B5110020202810B55E
:103CD80016D100200B4C21462060FFF77DFC08B16F
:103CE80072B6FEE7236843B1A288074B1A8022897F
:103CF800064B1A800122064B1A700023C4E90133CF
:103D080010BD00BFF8100020540E0020520E0020F5
:103D1800500E0020202000F077BF72B6FEE70000AA
:103D2800074B82B0D3F8942042F00402C3F89420E1
:103D3800D3F8943003F004030193019B02B0704759
:103D4800000C02460268094B82B09A420CD1084B1B
:103D5800D3F8882042F48022C3F88820D3F888302A
:103D680003F480230193019B02B0704700B0024026
:103D7800000C0246F0B50446C1B01422002103A885
:103D88000CF009F9E022002108A80CF004F92268D7
:103D9800264B9A4247D10022012308A8CDE90823DF
:103DA80002F006FC08B1FFF7B8FF214B0227D3F851
:103DB8009020002642F48052C3F89020D3F8902037
:103DC800032502F480520092009AD3F88C2008242C
:103DD80042F08002C3F88C20D3F88C20154802F0FA
:103DE80080020192019AD3F88C2003A942F48072D0
:103DF800C3F88C20D3F88C30CDE9056503F48073C3
:103E08000293029B4FF47E430794CDE9033700F0F9
:103E180067FD0F23084803A9CDE90337CDE90565F8
:103E2800079400F05DFD41B0F0BD00BF00340D42C5
:103E3800000C0246001C02420020024208B502683B
:103E48000A4B9A4211D10A4A4FF47E41D2F8903077
:103E5800084823F48053C2F8903000F04DFEBDE8C6
:103E680008400F21044800F047BE08BD00340D4249
:103E7800000C0246001C02420020024210B5044613
:103E8800C0B01422002103A80CF085F8E02200211C
:103E980008A80CF080F822681A4B9A422FD1802289
:103EA800002308A8CDE9082302F082FB08B1FFF738
:103EB80034FF154C0322D4F88C30144843F0200307
:103EC800C4F88C30D4F88C3003A903F02003019394
:103ED800019B1223CDE903230023CDE905330423F5
:103EE800079300F0FDFCD4F89C3043F48003C4F839
:103EF8009C30D4F89C3003F480030293029B40B0BA
:103F080010BD00BF00580040000C024600140242D9
:103F180008B502680A4B9A4210D10A4A0121D2F820
:103F28009C30094823F48003C2F89C3000F0E4FD7B
:103F3800BDE808400221044800F0DEBD08BD00BF0E
:103F480000580040000C02460014024210B5044616
:103F5800BAB0E022002102A80CF01DF822680E4B2E
:103F68009A4217D14FF40022002302A8CDE9022378
:103F780002F01EFB08B1FFF7D0FE084BD3F88C20E7
:103F880042F48022C3F88C20D3F88C3003F48023C9
:103F98000193019B3AB010BD00080C42000C024688
:103FA80010B50446BAB0E022002102A80BF0F3FFD6
:103FB8002268164B9A4226D100234FF48022CDE97D
:103FC80002234FF4807302A8369302F0F1FA08B185
:103FD800FFF7A3FE0E4BD3F8F02042F40042C3F8DB
:103FE800F020D3F8A82042F40012C3F8A820D3F890
:103FF800A82002F400120192019AD3F8D82042F4C2
:104008000012C3F8D8203AB010BD00BF00780046AF
:10401800000C02461FB50368274A93420FD1274B6D
:10402800D3F89C2042F00202C3F89C20D3F89C30BD
:1040380003F002030093009B05B05DF804FB204ADF
:1040480093420DD11D4BD3F89C2042F00402C3F8D3
:104058009C20D3F89C3003F004030193019BEBE709
:10406800184A934217D1154B3120D3F89C2042F0BF
:104078001002C3F89C200022D3F89C30114603F0AC
:1040880010030293029B00F0B1F9312005B05DF8EE
:1040980004EB00F0DBB90C4A9342CDD1074BD3F8BF
:1040A8009C2042F02002C3F89C20D3F89C3003F0F7
:1040B80020030393039BBFE700040040000C024663
:1040C80000080040001000400014004010B50446ED
:1040D80086B01422002101A80BF05DFF22680D4B69
:1040E8009A4215D10C4B0D48D3F88C2001A942F007
:1040F8001002C3F88C20D3F88C30402203F0100350
:104108000093009B0223CDE90123059300F0E8FB0F
:1041180006B010BD00040040000C02460010024228
:10412800FEE7FEE7FEE7FEE7FEE7704770477047E9
:1041380000F026B9022000F067BD102000F064BD31
:1041480008B5034803F088FBBDE8084008F0B8BB91
:10415800A40E00200120704708B50CF0BBFD162303
:1041680003604FF0FF3008BD08B50CF0B3FD16230F
:104178000360FEE770B50D4614460E46731B9C425D
:1041880001DC204670BDAFF3008006F8010BF5E7AF
:1041980070B50D4614460E46731B9C4201DC204642
:1041A80070BD16F8010BAFF30080F5E74FF0FF3054
:1041B80070474FF4005300204B6070470120704750
:1041C800002070470B4A0346116810B509B90A491F
:1041D8001160106809490A4C0344091B8B4206D92F
:1041E8000CF078FD0C2303604FF0FF3010BD136016
:1041F800FCE700BF0811002078CF002000002F2026
:104208000004000001220E48D0F8883043F47003FF
:10421800C0F888300B4B1A600022DA611A625A62C1
:10422800196821F0A85121F4102119609A621968BF
:1042380021F4802119601A654FF00063836070478C
:1042480000ED00E0000C0246DFF834D0FFF7DAFF9B
:10425800002103E00B4B5B58435004310A480B4BD9
:1042680042189A42F6D30A4A02E0002342F8043B75
:10427800084B9A42F9D30CF033FDFFF75DFAFEE7DD
:1042880000002F20E010030800000020200100207B
:104298002001002074CF0020FEE7000070B5204EFA
:1042A800054632780AB9012070BD4FF0E0231C6939
:1042B80014F0040417D04FF47A73B3FBF2F3194ADD
:1042C8001468B4FBF3F4204600F0CEF80446002846
:1042D800E9D1024629464FF0FF3000F087F8124B2B
:1042E80020461D60E0E700F009F9012807D0022800
:1042F8000DD00028E7D14FF4FA533278DDE74FF4B8
:104308007A7332784FF4FA44B3FBF2F3D9E74FF4F7
:104318007A7332784FF40044B3FBF2F3D1E700BF6D
:1043280038000020340000203C000020104A10B55E
:104338001368032043F48073136000F045F801F01C
:1043480015FA0C4B0C4A1B6A03F00F03D35CD840D8
:104358000A4B1860042000F097F80F20FFF79EFF23
:10436800044618B9FFF7DCFC204610BD0124FBE722
:1043780000200240000C0246504901083400002089
:10438800034A044B11681B780B441360704700BF45
:104398000C11002038000020014B1868704700BF3E
:1043A8000C11002038B50446FFF7F6FF0546631CDC
:1043B8001EBF044B1B78E418FFF7EEFF431BA34214
:1043C800FAD338BD3800002007490302CA6803F44D
:1043D800E06322F4E0621204120C134343F0BF635B
:1043E80043F40033CB60704700ED00E0154B30B567
:1043F800DC68C4F30224C4F10703251D042B28BF7D
:104408000423062D4FF0FF3594BF0024033C05FA22
:1044180003F321EA0303A54022EA0502A34000288A
:1044280043EA0203ACBF00F16040074A4FEA0313B6
:10443800DBB2ABBF00F5614000F00F0080F800333D
:10444800135430BD00ED00E014ED00E0002807DB58
:1044580001234109034A00F01F00834042F821303C
:10446800704700BF00E100E00138B0F1807F3FBF36
:104478004FF0E02358610020986137BF1A69012086
:1044880042F003021A617047042818D8DFE800F0E8
:104498000A18261703004FF0E022136943F00403BB
:1044A800136170474FF0E022136923F0040313618E
:1044B800114AD2F8E03023F44003C2F8E0307047E4
:1044C8004FF0E022136923F0040313610A4AD2F87B
:1044D800E03023F4400343F48003EEE74FF0E0229A
:1044E800136923F004031361034AD2F8E03023F47C
:1044F800400343F40003E0E7000C02464FF0E023DA
:104508001B695A070DD4094BD3F8E00000F44000AA
:10451800B0F5800F07D0A0F500035842584140007D
:104528007047042070470120704700BF000C024606
:1045380038B50446FFF730FF054644B194F85430C7
:10454800022B06D02023A365002384F84C300120D9
:1045580038BD2268536943F004035361052384F886
:10456800543023681A69900419D55A69216D42F0AC
:1045780002025A61042284F854204FF4FE42DA60A1
:104588000122090648BF616F84F854204FF00000EB
:1045980042BF0A7300229A6484F84C00D8E7FFF7F8
:1045A800FBFE401B0528DCD9A36D43F01003A3656F
:1045B800032384F85430236D1D06C5D50122636F8B
:1045C8001A73C1E7F0B50468059D666C45EA0345B2
:1045D800436806F040463543B3F5403F6564E263FF
:1045E8002FD1806801F07F4601F47F0301F47F42F8
:1045F800CDB203281AD8DFE800F00402060E21F035
:104608007F41A163F0BDD90C920AC90241EA421167
:1046180041EAD501F5E7DB0CD20A9B0243EA4213D3
:1046280043EAD503F10F43EAC131EAE71B0D120B48
:104638001B0243EA021343EA1513360F43EA063115
:10464800DFE7B3F5802F0CBF6161E160DAE710B5F1
:104658000446002836D090F8613003F0FF021BB9F9
:1046680080F86020FFF76EFB022384F8613023682E
:10467800E0691968626821F4E021024321F04001F1
:104688000A431A60596BA069A26821F48371024336
:1046980021F001010A435A631A6CE1686FF30F02B3
:1046A8000A431A64596BD4E90402520542EA0052DB
:1046B80021F440110A435A6300200123606684F8FC
:1046C800613010BD0120FCE773B590F860500446D6
:1046D800012D4FF002050FD0012680F86150069D8C
:1046E80080F860600095FFF76DFF0020226813686E
:1046F8003343136002B070BD2846FBE7002373B54F
:104708000193036804461B680D46DB0718D422682A
:10471800D369526A13439E0606D5FFF73DFE064647
:1047280023685A68D2063FD51222236800209A606F
:10473800012384F86130002384F8603002B070BD32
:10474800FFF72AFE064623685A689207DFD45A689C
:104758000192019A12F0210F14D0019A950642BFD6
:10476800626E42F002026266019AD00742BF626E30
:1047780042F00102626621229A600423012084F833
:104788006130D8E7691CDFD0FFF706FE801BA8421E
:1047980001D8002DD7D1636E032043F02003636650
:1047A800032384F86130C6E75A680192019A12F02F
:1047B800290F16D0019A160742BF626E42F0040212
:1047C8006266019A950642BF626E42F00202626614
:1047D800019AD00742BF626E42F001026266292246
:1047E800CAE7691C9DD0FFF7D7FD801BA842D2D825
:1047F800002D95D1CFE7000070B590F860300246E3
:10480800012B4FF0020032D082F861001C200123F6
:1048180000FB012082F86030836BD0E90B451B0553
:1048280043EA0543C56B2343406B43EA4553A4F170
:104838000905012D9ABF00F07F40034343EA006356
:104848001068A9B9446A1949012D01EA040141EA2D
:104858000301936A4162836103D8536B23F07F435A
:1048680083620123002082F8613082F8600070BD05
:104878000B2C01BF1C2404FB0124246C0C4E0CBF20
:1048880043EA84430B4EC469012D24EA060443EA33
:104898000403C3614FF01C0303FB01218B6A03610E
:1048A8009EBF4B6B23F07F430362DAE7F0FFCC0037
:1048B8000F003FFF0F0033FF012905D0022901D067
:1048C80029B94260826000E0426000207047012000
:1048D800704710B101600020704701207047000048
:1048E8002DE9F04F804B85B003EA902303937F4B6B
:1048F800002202934FF0030B03467D4E019101996C
:104908000D6835FA02F402D105B0BDE8F08F012137
:1049180001FA02FC1CEA050500F0E1800199754FD7
:104928004C68B84224F0100E40F085800F210768CB
:1049380004F0010327EA0C0793403B43029F0360FE
:10494800D7F804C0029B0CF00707BF0001FA07F96B
:104958000B2101FA07F702211B684FEADC0803EB79
:104968008808D8F820A02AEA090947EA0907C8F8F8
:104978002070D3F800804FEA4C070BFA07F928EAB1
:10498800090801FA07F747EA08071F6001990EF1BD
:10499800FF3EBEF1010FD1F8088040F28180032C60
:1049A80000F09980DF684FEA4C0C0BFA0CFE27EAFE
:1049B8000E0708FA0CF848EA0707DF60E70040F13D
:1049C8008E800F2122F0030C0CF18C4C02F00307AF
:1049D8000CF5083CFF00DCF8608001FA07FE03993B
:1049E80028EA0E0E01FA07F747EA0E07CCF86070BE
:1049F8006FEA050C3768E10254BF0CEA07072F433A
:104A080037607768A10254BF0CEA07072F43776025
:104A1800D6F88470A10354BF0CEA07072F43C6F8E1
:104A28008470D6F88070E10354BF0CEA07072F435F
:104A3800C6F8807053E04FEA420C0BFA0CF8BEF14E
:104A4800020F6FEA080821D10F214FEAD20900EBC3
:104A5800890902F0070AD9F820704FEA8A0A01FA90
:104A68000AF127EA0101019F0EFA0CFC3F6907F0E1
:104A78000F0707FA0AF70F43C9F820701F6807EAFB
:104A880008074CEA070794461F607FE71F6807EA94
:104A9800080804F0030707FA0CF747EA0807F2E7E3
:104AA8009F6801994FEA4C090BFA09FE27EA0E0E96
:104AB800CF68012107FA09F747EA0E079F605F6888
:104AC80001FA0CFE27EA0E0E270907FA0CF747EA47
:104AD8000E075F6066E7B8F1010F7FF463AF029CD1
:104AE8000132083402940AE77F7F2F0060490108E9
:104AF80000200246000002463C4B2DE9F04F4FF0E3
:104B0800010C03EA9028002403464FF003094FF0F4
:104B18000F0E374F31FA04F201D1BDE8F08F0CFACD
:104B280004F60E402DD0334A90422DD1D7E90032F9
:104B380005680CFA02F625EA060505601E685500A8
:104B480009FA05F52E434FEAD20A1E6003EB8A0ADA
:104B580002F00706DAF820B0B6000EFA06F62BEADD
:104B68000606CAF820609E680CFA02F226EA0506D4
:104B78009E605E6826EA02025A60DA6822EA050246
:104B8800DA6001340837C5E724F0030505F18C45E0
:104B980005F5083504F00302D200D5F860B00EFA26
:104BA80002FA0AEA0B0B08FA02F25A451BD1124A1A
:104BB800D2F880B02BEA060BC2F880B0D2F884B0E5
:104BC8002BEA060BC2F884B0D2F800B02BEA060B29
:104BD800C2F800B0D2F804B02BEA060656602A6E76
:104BE80022EA0A022A662246A8E700BF7F7F2F0032
:104BF8006049010800000246002002460AB18161AE
:104C0800704781627047704738B5084D0446EB68B5
:104C1800034202D0E860FFF759F82B691C4203D021
:104C280020462C61FFF7EFFF38BD00BF0020024689
:104C380003689A69910744BF00229A629A69D20769
:104C48005EBF9A6942F001029A61704730B5039DD0
:104C580004682B4343EA0243064A6068C1F309012A
:104C68000B4342EA555223F0004320EA0200034373
:104C7800636030BDFF63FF0303682DE9F0419C6961
:104C8800054614F010040F4616466FD00024102273
:104C9800A046DA612B689A69900661D4B8F1000FD2
:104CA80035D0012044F004042E68B369D90541BF0A
:104CB8004FF480720120F26144F001045A0541BFAB
:104CC8004FF48062012044F00804F2619B054FD53F
:104CD8004FF4007344F00204F3612846FFF7A8FF7D
:104CE8007368012023F0FF7323F48B3323F4FF73DD
:104CF80023F0010373606B6C23436B64202385F8F6
:104D08004130002385F8423085F8403032E07A1C83
:104D1800C1D0FFF741FB801BB84201D8002FB9D1A1
:104D28002B68596895F842209869D2B200040AD5D0
:104D3800490408D4202A06D05A6842F480425A60AE
:104D4800FFF72AFB06462B689B699B06A2D4FFF750
:104D580023FB801B1928F6D920244FF0010899E776
:104D6800B8F1000F9DD12022DA619AE720469BE72F
:104D78000028B2D1BDE8F08170B504460D4616464C
:104D880023689B699B0701D500201FE0324629460E
:104D98002046FFF771FFC0B96A1CF1D0FFF7FCFA93
:104DA800801BA84201D8002DEAD123689B6913F023
:104DB8000203E5D1626C84F8403042F0200262645C
:104DC800202284F8412084F84230012070BD2DE96A
:104DD800F04104460F4616461D46DDF81880236844
:104DE8009B6937EA03030CBF01230023B34201D0B8
:104DF800002025E0424629462046FFF73DFFF0B94E
:104E08006B1CECD0FFF7C8FAA0EB0800A84201D849
:104E1800002DE4D123689B6937EA03030CBF012303
:104E28000023B342DBD1636C43F020036364202387
:104E380084F84130002384F8423084F8403001205F
:104E4800BDE8F08170B504460D46164623689B6997
:104E58009B0601D500201DE0324629462046FFF773
:104E68000BFFB0B9FFF798FA801BA84201D8002DB4
:104E7800ECD123689B6913F02003E7D1626C84F8B6
:104E8800403042F020026264202284F8412084F8F5
:104E98004230012070BD10B5044600284ED090F86D
:104EA800413003F0FF021BB980F84020FEF7E6FF0F
:104EB800242384F8413023681A6822F001021A601A
:104EC800626822F070621A619A6822F400429A605D
:104ED800D4E90221012906D142F400429A605A68B5
:104EE80022F4006207E042F4044202299A60F6D1F3
:104EF8005A6842F400625A605A68002042F0007210
:104F080042F400425A60DA6822F40042DA60D4E9D6
:104F180004210A43A16942EA0122DA60D4E907219F
:104F28000A431A601A6842F001021A60202360647A
:104F380084F84130206384F8420010BD0120FCE76A
:104F480010B5044698B12423026880F841301368EC
:104F580023F001031360FEF7DBFF0020606484F890
:104F6800400084F84100206384F8420010BD01200D
:104F7800FCE700002DE9F74F994690F841300446C8
:104F8800202B0F461646BDF834A0DDF8388040F0D7
:104F9800C6800C9B13B1BAF1000F06D14FF4007311
:104FA8006364012003B0BDE8F08F90F84030012B16
:104FB80000F0B5804FF0010B80F840B0FFF7ECF936
:104FC8001923054600905A464FF400412046FFF742
:104FD800FEFE0028E5D1212384F84130402384F8DF
:104FE80042300C9B606463624E4B606339462046D6
:104FF800A4F82AA05FFA89F200934FF08073FFF7B4
:1050080025FE2A4641462046FFF7B6FE18BBB9F1F1
:10501800010F236815D1F6B29E6200224346802113
:1050280020460095FFF7D3FEA8B9638D9BB2FF2BEE
:1050380015D8628D4FF0007392B222850090D2B2DB
:1050480012E0320A9A6241462A462046FFF794FE49
:1050580008B92368DFE7002384F84030A1E7FF227E
:105068004FF080732285009039462046FFF7EEFD09
:105078002A4641462046FFF77FFE002891D1636A01
:10508800226813F8011B91626362638D228D013BD4
:105098009BB26385638D013A92B29BB22285B3B10C
:1050A800AAB94346802120460095FFF790FE0028C4
:1050B8007FF477AF638D9BB2FF2B28D9FF224FF087
:1050C80080732285009039462046FFF7BFFD638D27
:1050D8009BB2002BCCD12A4641462046FFF7B2FEB0
:1050E80000287FF45EAF20212368D9615A6822F036
:1050F800FF7222F48B3222F4FF7222F001025A600E
:1051080084F8411084F8400084F842004AE7628D30
:105118004FF0007392B222850090D2B2D3E70220FA
:1051280040E700BF002000802DE9F74F994690F82E
:1051380041300446202B0F461646BDF834A0DDF852
:10514800388040F0C9800C9B13B1BAF1000F06D12A
:105158004FF400736364012003B0BDE8F08F90F84A
:105168004030012B00F0B8804FF0010B80F840B0C0
:10517800FFF712F91923009005465A464FF40041EB
:105188002046FFF724FE03460028E4D1222284F8B3
:105198004120402284F842200C9A606462624F4A9F
:1051A800606339462046A4F82AA000925FFA89F283
:1051B800FFF74CFD2A4641462046FFF7DDFD20BBA0
:1051C800B9F1010F236816D1F6B29E620022434658
:1051D800402120460095FFF7FAFDB0B9638D9BB2D8
:1051E800FF2B3F4B15D8628D92B222850093D2B225
:1051F8004FF0007312E0320A9A6241462A4620466E
:10520800FFF7BAFD08B92368DEE7002384F84030C9
:10521800A1E7FF22228500934FF08073394620468C
:10522800FFF714FD43460022042120460095FFF7AE
:10523800CEFD00288FD123685A6A636A1A70636AA0
:10524800228D01336362638D013A013B9BB2638512
:10525800638D92B29BB22285B3B1AAB9434680212D
:1052680020460095FFF7B3FD00287FF474AF638DE7
:105278009BB2FF2B28D9FF224FF080732285009024
:1052880039462046FFF7E2FC638D9BB2002BC9D15B
:105298002A4641462046FFF7D5FD00287FF45BAF3C
:1052A80020212368D9615A6822F0FF7222F48B32D8
:1052B80022F4FF7222F001025A6084F8411084F847
:1052C800400084F8420047E7628D4FF0007392B2C5
:1052D80022850090D2B2D3E702203DE7002000806B
:1052E8000024008090F841007047406C704710B56A
:1052F80090F841200346202AD4B21CD190F84020CF
:10530800012A18D0242280F841200268106820F071
:1053180001001060106820F480501060106801438C
:1053280000201160116841F00101116083F84140CB
:1053380083F8400010BD0220FCE710B590F841202A
:105348000346202AD4B21BD190F84020012A17D056
:10535800242280F841200268106820F001001060C3
:10536800106820F4706040EA012100201160116883
:1053780041F00101116083F8414083F8400010BDFD
:105388000220FCE7034A0020136843F0010313607E
:10539800704700BF000403400068D20184328318BC
:1053A800F0B5C7685D684C6805F0F0255D60C568B4
:1053B8000E68C5F30B4506F1010CC7F30B472744EC
:1053C800654445EA07455D60C768CD68C7F30A07C5
:1053D8002F449D68A41B05F0F0259D60D0F80CC0F3
:1053E8008D68CCF30A0C0135654445EA07459D6094
:1053F8001D69D1F810C025F007051D61C3F810C05C
:105408008F6991F83050BCF1070F45EA076591F8AC
:10541800317045EA072591F8327045EA07459D61E4
:105428005D6925F0FF055D614D695D61DD6925F404
:10543800E06525F00705DD61D1E9075745EA07056D
:1054480088BF0127DD614D6A9D629CBF0C4D15F830
:105458000C70DD6A7C4305F0E025DD628D6A03345B
:105468007D4344EA0544DC621C6BC96A6FF30A0495
:105478001C631963835843F001038350F0BD00BFD8
:10548800E04901087047000038B50446002863D099
:1054980090F8A13003F0FF021BB980F8A020FFF7B5
:1054A800F1FF022384F8A13023689A6922F0704240
:1054B8009A61D4E901200243E068996902432069AE
:1054C80002430A439A619A68244960690A409A60CB
:1054D8009A6842EA0042A06902439A60DA68E06981
:1054E8000A40DA60DA6842EA0042206A0243DA6077
:1054F8001A69606A0A401A611A6942EA0042A06A97
:1055080002431A615A690A405A615A69E16A42EAD1
:105518000142216B0A435A61DA6A94F8350002F0B5
:105528007F4294F83610DA62DD6A94F834202A4310
:1055380042EA002242EA0142DA625A6B002042F053
:1055480006025A639A6942F001029A610123C4F87B
:10555800A40084F8A13038BD0120FCE700F800F071
:105568002DE9F04190F8A0300646012B0F469446ED
:105578004FF002001FD034244FF001080D4604FB01
:10558800026486F8A08086F8A10038340FCD0FC4D5
:105598000FCD0FC40FCD0FC42B6830462360624671
:1055A8003946FFF7F9FE00203368C3F8248086F8EF
:1055B800A18086F8A000BDE8F0810000024A936A45
:1055C80043F0010393627047000802461D4BDA6BF3
:1055D80002F44032824208D1B2F5803F82BFDA68D5
:1055E80042F48022DA6000207047DA68B0F5803F24
:1055F80022F4E02242EA000288BF42F48022DA6004
:105608004FF47A72104B32211B68B3FBF2F34B4311
:10561800B3FBF2F301331A460A49C868000404D4FC
:105628000AB903207047013AF7E7002AF9D0054A7A
:10563800D16B090403D4002BF3D0013BF8E7002B0E
:10564800D1D1EEE70008024634000020024BD86BA7
:1056580000F44030704700BF000802464FF47A72E9
:10566800124B32211B68B3FBF2F34B43B3FBF2F34B
:105678000F4A0133916850B921F002019160D16B52
:1056880088070ED50BB903207047013BF7E741F0B7
:1056980002019160D16B890703D4002BF3D0013B41
:1056A800F8E7002BEFD00020704700BF340000203F
:1056B8000008024637B52B4D0446D5F894305B07F1
:1056C80018D5FFF7C3FF20F48033B3F5003F26D188
:1056D800B4F1805F2CBF00200120234A136823F017
:1056E8000F0303431360136803F00F03181A18BF5E
:1056F80001201BE0D5F8943043F00403C5F894303A
:10570800D5F8943003F004030193019BFFF79EFF43
:10571800D5F8943023F00403C5F89430D3E7B4F1F6
:10572800805F05D2B0F5803F15D0012003B030BDB1
:10573800B4F1005F06D980B9B4F1405F8CBF002096
:105748000120CAE7B4F1805F09D1B0F5803F0CBFF2
:1057580001200220C1E70320BFE70020BDE70120A8
:10576800BBE700BF000C024600200240384A10B5D3
:10577800D369916A13F00C0305D00C2B36D101F0D4
:105788000301012932D19168090254BFD2F8F420EB
:105798009268304954BFC2F30332120F51F8220005
:1057A800002B51D02A4ADFED2C5A916A936A946AE9
:1057B800C3F30323013306EE903A936BC4F300144A
:1057C800C3F3CC03634307EE903A01F003010229C7
:1057D800B8EEE77AF8EEE66AB7EE006A14D0032965
:1057E80012D007EE900AF8EE677A0FE0D26902F05D
:1057F8000C02042A06D0082B27D000200C2B23D11A
:105808000020CFE71548F9E7DFED157A536B87EEEF
:10581800A65AC3F3080307EE903AF8EEE77AE7EEE4
:10582800257A0B4B77EE867A5B6B67EE857AC3F346
:105838000663013307EE103AF8EEC76A87EEA67AD8
:10584800FCEEC77A17EE900A10BD0448FCE700BFCB
:10585800000C024608490108000000390024F40041
:105868000024744B2DE9F3410D46044618B9012074
:1058780002B0BDE8F0819C4A136803F00F038B4225
:105888006ED32368D80677D419070DD597492069B0
:105898000A6A120902F07002904281BF0A6A22F471
:1058A800E06242EA00120A625A070BD58F49E068A3
:1058B8000A6A02F07002904281BF0A6A22F07002FE
:1058C80002430A629F070BD58849A0680A6A02F05A
:1058D8000F02904281BF0A6A22F00F0202430A6255
:1058E800DE0756D42268900700F1D8807E490B68FD
:1058F80003F00F03AB4200F2DE80500700F1E780AF
:1059080011070DD5794920690B6A1B0903F070034B
:1059180098423FBF0B6A23F4E06343EA00130B622B
:10592800D3060BD5714A6169536A03F07003994233
:105938003FBF536A23F070030B435362FFF716FF10
:105948006A4B6B4A1B6A03F00F03D35CD840694B60
:105958001860694B186802B0BDE8F041FEF79EBCBC
:10596800136823F00F030B431360136803F00F034E
:105978008B427FF47CAF84E75C4960694A6A02F035
:105988007002904281BF4A6A22F0700202434A6262
:105998007AE76268554B032A4ED1D3F89420510711
:1059A8003DD40127D3F8942042F00402C3F8942090
:1059B800D3F8943003F004030193019BFEF7ECFC49
:1059C800DFF838810646D8F80C305A0329D4474BFB
:1059D8002FB1D3F8942022F00402C3F894201B6856
:1059E80013F0007F3FF443AF404E6268F36941F221
:1059F800883823F003031343F361FEF7CDFC636893
:105A08000746032B25D1F36903F00C030C2B3FF455
:105A180069AFFEF7C1FCC01B4045F4D90AE0002776
:105A2800CCE7D8F80C305B04D1D4FEF7B5FC801B6A
:105A38000228F6D903201BE7022A1B6802D113F4B7
:105A4800003FCFE712B913F0040FCBE713F4806FD0
:105A5800C8E7022B0BD1F36903F00C03082B3FF4C2
:105A680041AFFEF799FCC01B4045F4D9E2E77BB98A
:105A7800F36913F00C0F3FF435AFFEF78DFCC01B34
:105A88004045F5D9D6E7FEF787FCC01B4045D1D87D
:105A9800F36903F00C03042BF5D123E71349A0683D
:105AA8000B6A03F00F0398423FBF0B6A23F00F0302
:105AB80003430B621AE70B6823F00F032B430B60B9
:105AC8000B6803F00F03AB427FF4D1AE15E707492B
